:100000000C9467000C948F000C948F000C948F005C
:100010000C948F000C948F000C948F000C948F0024
:100020000C948F000C948F000C948F000C948F0014
:100030000C948F000C948F000C948F000C948F0004
:100040000C9408020C948F000C9478020C945202C9
:100050000C948F000C948F000C948F000C948F00E4
:100060000C948F000C948F0058036E03700382036E
:1000700098039A03A803AE03C803DA03000000083C
:10008000000201000003040700000000000000005F
:1000900000000000250028002B00000000002400C4
:1000A00027002A00040404040404040402020202D7
:1000B000020203030303030301020408102040802B
:1000C000010204081020010204081020F903112481
:1000D0001FBECFEFD8E0DEBFCDBF11E0A0E0B1E0A2
:1000E000E6E6F8E002C005900D92A231B107D9F71B
:1000F00021E0A2E1B1E001C01D92AA3BB207E1F705
:1001000010E0C7E6D0E004C02197FE010E9426045B
:10011000C636D107C9F70E94AA020C9431040C9488
:10012000000090E0FC01E854FF4F2491FC01EC55E5
:10013000FF4F8491882399F090E0880F991FFC016C
:10014000E656FF4FA591B491FC01E057FF4F859112
:1001500094918FB7F894EC91E22BEC938FBF0895B4
:10016000CF92DF92EF92FF920F931F93CF93DF9383
:100170006C017A018B01C0E0D0E0CE15DF0589F07B
:10018000D8016D918D01D601ED91FC910190F08126
:10019000E02DC6010995892B11F47E0102C021963C
:1001A000ECCFC701DF91CF911F910F91FF90EF909E
:1001B000DF90CF900895089580E090E00895FC01CD
:1001C000538D448D252F30E0842F90E0821B930BBC
:1001D000541710F0CF96089501970895FC01918D62
:1001E000828D981761F0828DDF01A80FB11D5D9699
:1001F0008C91928D9F5F9F73928F90E008958FEF07
:100200009FEF0895FC01918D828D981731F0828DBA
:10021000E80FF11D858D90E008958FEF9FEF089511
:10022000FC01918D228D892F90E0805C9F4F821B75
:1002300091098F739927089584E191E00E9410013C
:1002400021E0892B09F420E0822F0895FC01848DA0
:10025000DF01A80FB11DA35ABF4F2C91848D90E0F0
:1002600001968F739927848FA689B7892C93A089CB
:10027000B1898C9180648C93938D848D981306C082
:100280000288F389E02D80818F7D80830895EF922D
:10029000FF920F931F93CF93DF93EC0181E0888F40
:1002A0009B8D8C8D981305C0E889F989808185FD27
:1002B00024C0F62E0B8D10E00F5F1F4F0F73112718
:1002C000E02E8C8DE8120CC00FB607FCFACFE8893F
:1002D000F989808185FFF5CFCE010E942601F1CFFB
:1002E0008B8DFE01E80FF11DE35AFF4FF0820B8F5B
:1002F000EA89FB898081806207C0EE89FF8960837B
:10030000E889F98980818064808381E090E0DF91D1
:10031000CF911F910F91FF90EF900895CF93DF93AE
:10032000EC01888D8823C9F0EA89FB89808185FDED
:1003300005C0A889B9898C9186FD0FC00FB607FC4E
:10034000F5CF808185FFF2CFA889B9898C9185FF8F
:10035000EDCFCE010E942601E7CFDF91CF91089526
:1003600080E090E0892B29F00E941C0181110C94FF
:100370000000089590E0FC01E458FF4F3491FC0127
:10038000E854FF4F2491FC01EC55FF4FE491EE231C
:1003900009F43BC0332339F1333091F038F4313074
:1003A000A9F0323001F584B58F7D12C0373091F05D
:1003B0003830A1F03430B9F4809180008F7D03C0D3
:1003C000809180008F77809380000DC084B58F77F7
:1003D00084BD09C08091B0008F7703C08091B000C8
:1003E0008F7D8093B000F0E0EE0FFF1FE057FF4FCE
:1003F000A591B4918FB7F894EC91611103C0209549
:100400002E2301C02E2B2C938FBF08950E942C0405
:100410001F920F920FB60F9211242F933F938F9339
:100420009F93AF93BF938091B6019091B701A09134
:10043000B801B091B9013091B50123E0230F2D37F8
:1004400020F40196A11DB11D05C026E8230F0296D8
:10045000A11DB11D2093B5018093B6019093B70102
:10046000A093B801B093B9018091B1019091B2010C
:10047000A091B301B091B4010196A11DB11D80936B
:10048000B1019093B201A093B301B093B401BF91B5
:10049000AF919F918F913F912F910F900FBE0F9031
:1004A0001F9018951F920F920FB60F9211242F9341
:1004B0003F934F935F936F937F938F939F93AF93EC
:1004C000BF93EF93FF9384E191E00E942601FF9197
:1004D000EF91BF91AF919F918F917F916F915F91BC
:1004E0004F913F912F910F900FBE0F901F90189535
:1004F0001F920F920FB60F9211242F938F939F93F9
:10050000EF93FF93E0912401F09125018081E09128
:100510002A01F0912B0182FD12C0908180912D0162
:100520008F5F8F7320912E01821751F0E0912D0182
:10053000F0E0EC5EFE4F958F80932D0101C080812D
:10054000FF91EF919F918F912F910F900FBE0F9080
:100550001F901895789484B5826084BD84B58160BD
:1005600084BD85B5826085BD85B5816085BD80917E
:100570006E00816080936E001092810080918100F6
:1005800082608093810080918100816080938100EE
:10059000809180008160809380008091B1008460B0
:1005A0008093B1008091B00081608093B000809111
:1005B0007A00846080937A0080917A0082608093D0
:1005C0007A0080917A00816080937A0080917A002D
:1005D000806880937A001092C100E0912401F0912C
:1005E000250182E08083E0912001F09121011082B9
:1005F000E0912201F09123018FEC808310922C0175
:10060000E0912801F091290186E08083E0912601A4
:10061000F0912701808180618083E0912601F09133
:100620002701808188608083E0912601F091270175
:10063000808180688083E0912601F091270180818C
:100640008F7D808382E00E94910083E00E94910070
:1006500084E00E94910085E00E94910086E00E9463
:10066000910087E00E94910088E00E94910089E05B
:100670000E94910060E089E00E94BA0184E191E06B
:100680000E941001181619060CF0B0C084E191E028
:100690000E94EE009093130180931201FC01F097E9
:1006A000EA30F10508F0A2C0EC5CFF4F0C94260480
:1006B00061E082E00E94BA0161E083E00E94BA0139
:1006C00061E084E00E94BA0161E085E00E94BA0125
:1006D00061E086E00E94BA0161E055C060E03FC081
:1006E00061E082E00E94BA0161E083E00E94BA0109
:1006F00060E084E00E94BA0161E085E00E94BA01F6
:1007000061E011C061E082E00E94BA0161E083E033
:100710000E94BA0161E084E00E94BA0161E085E0D4
:100720000E94BA0160E086E00E94BA0160E057C012
:1007300060E041C061E082E00E94BA0160E083E0D5
:100740000E94BA0161E084E00E94BA0161E03FC00A
:1007500061E082E00E94BA0160E01FC061E082E0D7
:100760000E94BA0161E083E00E94BA0161E084E086
:100770000E94BA0160E085E00E94BA0160E086E074
:100780000E94BA0160E087E00E94BA0160E02BC0DD
:1007900061E082E00E94BA0161E083E00E94BA0158
:1007A00061E084E00E94BA0161E085E00E94BA0144
:1007B00061E011C061E082E00E94BA0161E083E083
:1007C0000E94BA0161E084E00E94BA0160E085E025
:1007D0000E94BA0160E086E00E94BA0161E087E011
:1007E0000E94BA0161E088E00E94BA010E94B00153
:1007F00045CFE4E1F1E01382128288EE93E0A0E0BD
:10080000B0E084839583A683B78384E091E09183ED
:10081000808385EC90E09587848784EC90E09787CF
:10082000868780EC90E0918B808B81EC90E0938BBD
:10083000828B82EC90E0958B848B86EC90E0978B9A
:10084000868B118E128E138E148E0895EE0FFF1F5D
:100850000590F491E02D099481E090E0F8940C94D7
:060860003104F894FFCF03
:10086600000000004701B000DF008E011001EE001D
:0208760002017D
:107E0000112484B714BE81FFF0D085E080938100F7
:107E100082E08093C00088E18093C10086E0809377
:107E2000C20080E18093C4008EE0C9D0259A86E02C
:107E300020E33CEF91E0309385002093840096BBD3
:107E4000B09BFECF1D9AA8958150A9F7CC24DD24C4
:107E500088248394B5E0AB2EA1E19A2EF3E0BF2EE7
:107E6000A2D0813461F49FD0082FAFD0023811F036
:107E7000013811F484E001C083E08DD089C08234E0
:107E800011F484E103C0853419F485E0A6D080C0E4
:107E9000853579F488D0E82EFF2485D0082F10E0AE
:107EA000102F00270E291F29000F111F8ED06801E7
:107EB0006FC0863521F484E090D080E0DECF843638
:107EC00009F040C070D06FD0082F6DD080E0C81688
:107ED00080E7D80618F4F601B7BEE895C0E0D1E017
:107EE00062D089930C17E1F7F0E0CF16F0E7DF06D8
:107EF00018F0F601B7BEE89568D007B600FCFDCFD4
:107F0000A601A0E0B1E02C9130E011968C91119780
:107F100090E0982F8827822B932B1296FA010C0160
:107F200087BEE89511244E5F5F4FF1E0A038BF0790
:107F300051F7F601A7BEE89507B600FCFDCF97BE46
:107F4000E89526C08437B1F42ED02DD0F82E2BD052
:107F50003CD0F601EF2C8F010F5F1F4F84911BD097
:107F6000EA94F801C1F70894C11CD11CFA94CF0C13
:107F7000D11C0EC0853739F428D08EE10CD085E9AC
:107F80000AD08FE07ACF813511F488E018D01DD067
:107F900080E101D065CF982F8091C00085FFFCCF94
:107FA0009093C60008958091C00087FFFCCF809118
:107FB000C00084FD01C0A8958091C6000895E0E648
:107FC000F0E098E1908380830895EDDF803219F02E
:107FD00088E0F5DFFFCF84E1DECF1F93182FE3DFCA
:107FE0001150E9F7F2DF1F91089580E0E8DFEE27F6
:047FF000FF270994CA
:027FFE00040479
:0400000300007E007B
:00000001FF
